:020000040000FA
:1000000090070010D5000000D9000000DB000000C0
:10001000DD000000DF000000E10000000000000043
:10002000000000000000000000000000E3000000ED
:10003000E500000000000000E7000000F52C0000D3
:10004000EB000000EB000000EB000000EB00000004
:10005000EB000000EB000000EB000000EB000000F4
:10006000EB000000EB000000EB000000EB000000E4
:10007000EB0000003D170000450E0000AD1300002E
:10008000EB000000EB000000C7090000010A0000BF
:10009000FD0D0000F5060000EB000000EB00000085
:1000A000EB000000EB000000EB000000EB000000A4
:1000B000D1330000AF3300005B3300002D3300006C
:1000C0000348854603F034FC00480047532D0000E8
:1000D0009007001005480047FEE7FEE7FEE7FEE751
:1000E000FEE7FEE7FEE7FEE7FEE7FEE7C1000000F1
:1000F0003249334A11600121324A116051600021B6
:1001000051600121516000BF2E494968C907C90FDC
:100110000029F9D02B4940398868400A4002032160
:100120000143284A403A91602749896B80229143D4
:10013000254A916300BF23494039C968C907C90FDF
:100140000029F8D003211F4A1163012151630021C6
:1001500051630121516300BF1A49496BC907C90F97
:100160000029F9D00121174A9163154909688900CE
:10017000164A116011460968154A1160704700B5AA
:100180000220104940390860002008620E48806B48
:10019000202188430C498863002300E05B1CFF2B6F
:1001A000FCD9FFF7A5FF074840300068012109048A
:1001B000084304494031086000BD0000001BB7003F
:1001C0000000001040800440008204400400001041
:1001D0000800001000BF1F49496920221140002972
:1001E000F9D01C490860704710B503460C46184604
:1001F000FFF7F0FF10BD00BF174800680028FBD0D4
:10020000062014494860002013490860072011495E
:10021000486012480078704710B50446FFF7EBFFBE
:100220000346FFF7D7FF10BD00B503461846FFF79A
:10023000D1FF00BD01460020C043704700BFFEE76C
:1002400000BF04484069C007C00F0028F9D001482A
:10025000006870470080004014000010CC000010BF
:10026000F1B582B021488469406901902049029823
:10027000484300900199009803F0C8F80746019997
:10028000009803F0C3F80D46002F0ED000260AE0B8
:1002900000BF16488069A042FBD300BF13488069A5
:1002A000A042FBD8761CBE42F2D3002D1DD0A54241
:1002B00006D200BF0D488069611B8842FAD814E05D
:1002C000A54205D100BF09488069A042FBD30CE0DC
:1002D00000BF06488069A042FBD300BF0348816984
:1002E0002A1B0198801A8142F8D8FEBD00E000E088
:1002F00080BB00007047000000000000FFFFFFFF10
:1003000010B5F548006840210843F34908601F20F4
:1003100000F0DBF91E2000F0D8F91D2000F0D5F91F
:100320001C2000F0D2F910BD70B5049C002806D046
:10033000012838D002286AD003287BD19CE0002A0B
:1003400018D1E64D6D6801268E40B543E34E7560C9
:10035000002B07D13546AD6801268E40B543DF4EF0
:10036000B5600EE0DD4DAD6801268E403543DB4EB5
:10037000B56006E0D94D6D6801268E403543D74EF5
:100380007560002C07D1D54DED6801268E40B54330
:10039000D24EF56006E0D14DED6801268E40354322
:1003A000CE4EF5609DE0002A18D1CD4D6D68012636
:1003B0008E40B543CA4E7560002B07D13546AD68F7
:1003C00001268E40B543C64EB5600EE0C44DAD6803
:1003D00001268E403543C24EB56006E0C04D6D68C3
:1003E00001268E403543BE4E7560002C07D1BC4DB2
:1003F000ED6801268E40B543B94EF56006E0B84D74
:10040000ED6801268E403543B54EF56069E0002A5F
:1004100019D1B44D6D6801268E40B543B14E75605B
:10042000002B08D13546AD6801268E40B543AD4E50
:10043000B5600FE054E0AB4DAD6801268E4035430A
:10044000A84EB56006E0A74D6D6801268E40354385
:10045000A44E7560002C07D1A24DED6801268E4098
:10046000B543A04EF56006E09E4DED6801268E4036
:1004700035439C4EF56034E0002A18D19A4D6D68E2
:1004800001268E40B543984E7560002B07D1354646
:10049000AD6801268E40B543934EB5600EE0924D97
:1004A000AD6801268E4035438F4EB56006E08E4D17
:1004B0006D6801268E4035438B4E7560002C07D148
:1004C000894DED6801268E40B543874EF56006E004
:1004D000854DED6801268E403543834EF56000E082
:1004E00000BF00BF70BD002806D001280CD0022834
:1004F00012D0032820D117E0784A126901238B40DB
:100500001A43764B1A6118E0754A126901238B4031
:100510001A43734B1A6110E0724A126901238B402F
:100520001A43704B1A6108E06F4A126901238B402D
:100530001A436D4B1A6100E000BF00BF70470028EE
:1005400006D001280CD0022812D0032820D117E0B1
:10055000624A126901238B409A43604B1A6118E08A
:100560005F4A126901238B409A435D4B1A6110E088
:100570005C4A126901238B409A435A4B1A6108E086
:10058000594A136901228A409343574A136100E094
:1005900000BF00BF704710B502460020002A06D0F9
:1005A000012A0DD0022A14D0032A24D11AE04B4B81
:1005B0009B6901248C402340002B00D001201BE0CC
:1005C000474B9B6901248C402340002B00D0012025
:1005D00012E0444B9B6901248C402340002B00D047
:1005E000012009E0404B9B6901248C402340002BF3
:1005F00000D0012000E000BF00BF10BD002806D0E1
:1006000001280CD0022812D0032820D117E0334A49
:10061000D26901238B401A43304BDA6118E0304A2B
:10062000D26901238B401A432D4BDA6110E02D4A29
:10063000D26901238B401A432A4BDA6108E02A4A27
:10064000D26901238B401A43274BDA6100E000BFD7
:1006500000BF704730B513468B408400234D2D59A1
:1006600001248C40A4002B5130BD024690001F4B4A
:100670001B580120884080001858704730B5002A68
:1006800011D08300194CE3580124E4031B191B68A3
:1006900001248C4023438400144D2C590125ED0383
:1006A0006419236010E08300104CE3580124E40334
:1006B0001B191B6801248C40A34384000B4D2C594B
:1006C0000125ED036419236030BDC206D20E01215D
:1006D0009140074A116070478080044000800050BC
:1006E00000800150008002500080035084470000C9
:1006F00000E100E070B500BF894A9268D0B24010B6
:100700004007400F032822D1854A5269D1B29E2268
:100710000A40002A05D0834A1160814A1268D3B288
:1007200070BDCA07D20F002A3FD07D4C2468E5B2C5
:100730007D4C2268541C7C4E34607C4CA55432465F
:100740001268402A31D30022344622602DE002286C
:1007500011D1734C2468E5B2734C2268541C724E5C
:100760003460724CA55432461268402A1DD30022D0
:100770003446226019E0062807D16A4A1268FF242D
:1007800001342243674C22600FE001280DD1644AF6
:100790005269D1B220220A40002A03D00122644CBF
:1007A000227002E00022624C227000BFB8E7F8B568
:1007B000044601205E49087000205B49086015204E
:1007C000012181405B4A116000BF5B48406AC0085C
:1007D000C000594948620846406A01210843564909
:1007E00048620846806AC008C00088620846806A7D
:1007F00001210843504988625048006801210903DB
:1008000008434E4908600120886183204449C8603C
:100810004A48866931464A48006802F0F7FD0709F0
:100820002146384602F0F2FD0546280A3C49486058
:10083000E8B208600320C86007208860084646695F
:1008400000BF37484069602108406028F9D101E0C5
:100850003348066832484069C007C00F0028F7D106
:10086000152001218140334A803A116000BF0520E4
:100870002B494860F8BD0BE000BF294A526920238C
:100880001A40002AF9D00278254B1A60401C491EF4
:100890000029F1D1704700BF214949692022114048
:1008A0000029F9D01E490860704700B5034603E0EF
:1008B00018785B1CFFF7EFFF18780028F8D100BD0F
:1008C0000FB400B59BB01DA80090642101A8009B47
:1008D0001C9A03F083F801A8FFF7E7FF00200090BF
:1008E0001BB008BC04B018470146164800680E4A01
:1008F0001268904211D00D48124A1268805C08704C
:1009000010480068401C0F4A1060104600684028DC
:1009100001D300201060012070470020FCE7000098
:10092000008000400C00001014000010CC000010EB
:100930001000001080E100E080400440808004400E
:10094000080000101800001070B504460D46002C79
:100950001BD10220FE4948600020C8607D21C900EB
:10096000FC48006802F052FD6843F9498861FF20A5
:100970000860042048610120486000BFF4484068D6
:10098000C007C00F0028F9D11CE0012C1AD10220A9
:10099000F14948600020C8607D21C900ED48006829
:1009A00002F034FD6843EC498861FF2008600420B0
:1009B00048610120486000BFE7484068C007C00F99
:1009C0000028F9D170BDE2480068C007C00F0028B8
:1009D00007D00120DE490860E0480068401CDF497C
:1009E0000860DB48006810210840002807D010206C
:1009F000D7490860DA480068401CD9490860704748
:100A0000D5480068C007C00F002807D00120D24990
:100A10000860D4480068401CD2490860CE4800688D
:100A200010210840002807D01020CB490860CE488C
:100A30000068401CCC4908607047002803D10121A0
:100A4000C34A516002E00121C34A51607047002847
:100A500003D10021BE4A516002E00021BE4A51602C
:100A600070470146002906D1B94A50680222104356
:100A7000B74A506005E0B84A506802221043B64AAF
:100A80005060704770B504460D46002C47D1B748FA
:100A90000068012149020843B4490860B448006A6B
:100AA000C008C000B24908620846006A0221084333
:100AB000AF4908620846406AC008C000486208465C
:100AC000406A02210843AA4948620846806AC00871
:100AD000C00088620846806A02210843A4498862EF
:100AE000A34880380069C008C000A1498039086166
:100AF00008460069022108439D49803908610020A9
:100B0000964908609649086091488561052090499A
:100B1000886203204861122000F063F922E0012C72
:100B200020D192480068A10208439049086090488B
:100B30004069C008C0008E494861084640690221EA
:100B400008438B494861002086490860864908604F
:100B5000814885610520804988620320486113200F
:100B600000F03FF970BD70B504460D46002C12D15F
:100B70007E4800680121490208437C490860002042
:100B800076490860724885610320714948611220E6
:100B900000F027F912E0012C10D174480068A1027E
:100BA00008437249086000206E4908606A48856100
:100BB000032069494861132000F013F970BD30B576
:100BC00005460C4613462846FFF741FF012D66D126
:100BD00066480068A902084364490860B320C00061
:100BE00018435D49C863D807C00F00280ED060487D
:100BF0004038C06BC008C0005D494039C863084632
:100C0000C06B032108435A494039C8630220184089
:100C100000280BD056480068C008C000544908603E
:100C20000846006803210843514908600420184021
:100C300000280BD04E480069C008C0004C4908612C
:100C40000846006903210843494908610820184003
:100C500000280BD046484069C008C000444948619C
:100C60000846406902210843414948610120184370
:100C70003949403148633F4804600068364948625A
:100C80003C480068400888613A4800684008C861EC
:100C90003848006840080862022048616FE0334825
:100CA000006801214902084330490860CB20C00098
:100CB00018432749C8630220184000280BD02C484D
:100CC000806AC008C0002A4988620846806A0221FA
:100CD0000843274988620420184000280ED0244881
:100CE00080380069C008C000214980390861084681
:100CF0000069022108431E49803908610820184014
:100D000000280ED01A484038406BC008C00018496F
:100D1000403948630846406B032108431449403971
:100D20004863082018430A49403148631248046068
:100D30000068074948621048006888610E480068EA
:100D40004008C8610C48006840080862081515E0B2
:100D50000040014008000010008001402400001005
:100D60002C0000102800001030000010808004408B
:100D7000804004403800001034000010486130BD4D
:100D8000002816D0002906D0012907D0022908D052
:100D900003290CD108E0164B9A6109E0144BDA6183
:100DA00006E0134B1A6203E0114B5A6200E000BFE9
:100DB00016E0002906D0012907D0022908D003290E
:100DC0000CD108E00B4B9A6109E00A4BDA6106E0AE
:100DD000084B1A6203E0074B5A6200E000BF00BFF5
:100DE0007047C206D20E01219140034A116070473C
:100DF000008001400040014000E100E0F949C8697D
:100E0000C107C90F002907D0F7490968491CF64AEC
:100E100011600121F34A116202210140002907D02B
:100E2000F2490968491CF14A11600221ED4A116238
:100E300004210140002904D0ED490968491CEC4A0D
:100E400011607047EB49C869C107C90F002907D075
:100E5000E9490968491CE84A11600121E54A116223
:100E600002210140002907D0E4490968491CE34AEE
:100E700011600221DF4A116204210140002904D0DF
:100E8000DF490968491CDE4A1160704710B5044605
:100E9000002C47D1DB48406801210843D94948600C
:100EA000D84880300068C9140843D64980310860AA
:100EB00002204861D448006AC008C000D2490862D4
:100EC0000846006A01210843CF4908620846406A83
:100ED000C008C00048620846406A01210843CA4968
:100EE00048620120C84940310863C7490863C548C2
:100EF0008030006840210843C24980310860C24800
:100F00004038C069C008C000BF494039C8610122EB
:100F100002210020FFF7B2FB012202210020FFF78F
:100F200099FB54E0B748406804210843B54948603C
:100F3000B44880300068012189040843B1498031F8
:100F400008600220C861B048C069C008C000AE494E
:100F5000C8610846C06902210843AB49C861AA4874
:100F60004030C068C008C000A7494031C86008468A
:100F7000C06802210843A4494031C860A2484038F3
:100F8000806AC008C000A049403988620846806A6B
:100F9000022108439C49403988629A4880300068A1
:100FA000402108439749803108609748403880685D
:100FB000C008C00094494039886001220021022005
:100FC000FFF75CFB012200210220FFF743FB10BD6D
:100FD00010B50446002C69D18A48406801210843B5
:100FE00088494860874880300068C91408438549AB
:100FF00080310860022048618348006AC008C00050
:10100000814908620846006A012108437E49086256
:101010000846406AC008C00048620846406A01218C
:10102000084379494862022077494031086376498C
:10103000C86074488030006840210843714980319D
:10104000086071480068C008C0006F49086001224C
:1010500004210220FFF712FB012204210220FFF7E6
:10106000F9FA694840380068C008C000664940394C
:101070000860012206210220FFF700FB0122062161
:101080000220FFF7E7FA60484038006AC008C00055
:101090005D4940390862012207210220FFF7EEFA7C
:1010A000012207210220FFF7D5FA54E05548406895
:1010B00004210843534948605248803000680121A8
:1010C000890408434F49803108600220C8614E48B6
:1010D000C069C008C0004C49C8610846C069022107
:1010E00008434949C86148484030C068C008C0004A
:1010F00045494031C8600846C0680221084342495A
:101100004031C86040484038806AC008C0003E494D
:10111000403988620846806A022108433A494039CA
:101120008862384880300068402108433549803162
:101130000860354840388068C008C00032494039EE
:101140008860012200210220FFF798FA0122002185
:101150000220FFF77FFA10BD70B5054600BF002DD5
:1011600016D12A481F490860FE200861002404E0C7
:101170001C488068C6B2601CC4B2082CF8DB14207E
:1011800000F006F90220174948600320486115E085
:101190001E481849086002200861002404E0154830
:1011A0008068C6B2601CC4B2082CF8DB0E2000F0C8
:1011B000EFF802200F4948600320486170BDF8B580
:1011C00007460D46164600980090002F31D1681E44
:1011D0000721090208430349086008460661002404
:1011E0001CE000000000044040000010440000101B
:1011F0003C000010008005404C0000105000001022
:1012000048000010008004404040044007070000F0
:1012100063488068C0B20090601CC4B2082CF7DB41
:10122000142000F0B5F802205D49486003204861B1
:1012300019E0681E0721090208435A490860084658
:101240000661002405E057488068C0B20090601C29
:10125000C4B2082CF7DB0E2000F09AF802205149A6
:10126000486003204861F8BD70B500BF00232DE041
:10127000002815D100BF4A4DED6812263540022DD9
:10128000F9D10D78464EB560491C00BF444DED685C
:1012900014263540042DF9D1414DAD68ECB214E06F
:1012A00000BF404DED6812263540022DF9D10D7872
:1012B0003C4EB560491C00BF3A4DED6814263540E0
:1012C000042DF9D1374DAD68ECB25B1C9342CFD3FE
:1012D00070BD30B500231FE000280ED1FF24304D33
:1012E000AC6000BF2E4CE46814252C40042CF9D1CE
:1012F0002B4CA4680C70491C0DE0FF24294DAC60F8
:1013000000BF284CE46814252C40042CF9D1254C4E
:10131000A4680C70491C5B1C9342DDD330BD0246AF
:10132000002A1AD100BF1E48C068122318400228A4
:10133000F9D11B48816000BF1948C06810231840CC
:101340000028F9D100BF1648C068142318400428AB
:10135000F9D11348806880B2704700BF1148C06857
:10136000122318400228F9D10E48816000BF0D48B1
:10137000C068102318400028F9D100BF0948C06890
:10138000142318400428F9D10648806880B2E3E7A6
:10139000C206D20E01219140034A1160704700003D
:1013A000000004400080054000E100E010B501208D
:1013B00080074068C1B24807400F00286FD1C810AD
:1013C000030002F034FB0CB3071523AB393AB464C5
:1013D000AC7496B30020AC4A1060AC48007801228F
:1013E00092079060282090610120A94A1060A2E035
:1013F0000020A84A1060A54800780122920790605A
:10140000282090610220A24A106094E0A048006861
:1014100001280DD19C4A1068421C9B4B1A609E4AC1
:101420001268125C01239B079A600420984A10609E
:101430000820C20690617EE000BF93480068974A8A
:10144000126890420ED2904A1068421C8E4B1A606D
:10145000914A1268125C01239B079A6004208C4A0F
:10146000106010E08E480068002806D02020420658
:1014700010600320864A106005E00520844A106051
:101480001020820610600820C206906153E0844854
:101490000068012804D104200207906103E045E0C0
:1014A0000420020710600820C206906143E0012278
:1014B00092079268D3B2774A1068421C754C22603A
:1014C000784A1268135420460068754A12689042A0
:1014D00005D204206E4A10600207106005E0052066
:1014E0006B4A10600420020790610820C2069061D8
:1014F00021E0012292079268D3B2664A1068421C2A
:10150000644C2260674A126813540520604A1060D8
:10151000102082061060082090610CE000BF0820B7
:10152000C206906105205A4A106004E000BF0820FE
:10153000C206906100BF00BF10BD00210020202224
:1015400053061A600BE0524A1268012A01D10120A9
:1015500006E0554A914201D3002001E0491CF2E720
:1015600000BF70471020810608600820886100BF16
:10157000012080070068102108400028F8D10120D0
:10158000704710B502464948406802231843474B4C
:10159000586046488030006820231843434B80330E
:1015A00018604348006B80098001414B186318465E
:1015B000006B012318433E4B18631846406B8009AB
:1015C000800158631846406B01231843384B586319
:1015D0006C201B049861FF20813058611861022A39
:1015E00001D15007C1600F2001238340314C23609B
:1015F00000BF402003061860012010BD00B5002088
:1016000023490860234908601F490860FFF795FFD8
:10161000012803D0FFF7A6FF002000BD06E01C480C
:101620000068052802D1FFF79DFF00E0F7E700BF43
:101630000120F2E770B506460C46154601203043FE
:1016400012490870174804601548056001201349C5
:101650000860FFF7D3FF124800681149086070BDA9
:1016600070B506460C461546084806700A480460E0
:101670000A48056000200A490860FFF7BFFF0748D5
:1016800000680649086070BD780000107C000010FA
:10169000540000107400001064000010700000106E
:1016A0006C00001068000010FFFFFF000080044085
:1016B0000040044000E100E030B5024600BFC84BE6
:1016C0001B680124E4032340002BF8D17F23C44C82
:1016D0006360531C236000BFC14B1B680124E403FB
:1016E0002340002BF8D118235343BE4C1819BC4B90
:1016F0005B690124A4032340002B08D0B84B19696F
:101700001C466469B84D2C402404214303E0B44BCB
:101710005B69DB04590D02C0B14B9B691B071B0FB2
:1017200008C0AF4BDB6908C0AD4B1B6A08C0AC4BAF
:101730005B6A08C0AA4B9B6A08C030BD70B500BF89
:1017400036E00120C0033040002816D0A44880387D
:10175000456840202840002805D0A4480068401C67
:10176000A249086070BD80202840002820D0A048F1
:101770000068401C9E490860F4E76807400F002895
:1017800016D17404640C002C12D0202C10D894486C
:101790008038406810218843914980394860611E33
:1017A000C8B2FFF789FF0121601E8000914A1150E5
:1017B0008B4880380669002EC3D100BFD2E70021D4
:1017C000002059E0F322864B803B5A6200291BD14E
:1017D00000229A62884ADA6200221A63C21DF93234
:1017E00092000123DB031A437D4B803B5A63C207FF
:1017F000D20F002A02D1814A9A6326E0804A784BB0
:10180000803B9A63012120E07E4A754B803B9A62BF
:101810007D4ADA6201221205821892B21A6301220D
:1018200012058218120C03239B031A436C4B803B56
:101830005A63C207D20F002A02D1704A9A6304E0A9
:101840006F4A674B803B9A6300210022644B803BC8
:10185000DA63634B403B1A605A609A60421C604BEB
:10186000803B1A6200BF5E4A803A126A0123DB03A2
:101870001A40002AF7D1401C2028A3D3704710B586
:1018800004466248406808210843604948605F4850
:10189000803000680121490408435C4980310860B8
:1018A0004F4880380068C007C00F002807D14C4857
:1018B00080380068012108434949803908600520C3
:1018C000534908604648803800684021084344492D
:1018D000803908604F48C860002088610846006869
:1018E000402188433E498039086008460068400826
:1018F0004000086000BF3A4880380068C007C00F49
:101900000028F8D1FFF75BFF0D2001218140424AFA
:10191000116000BF3248803800680E21084330490A
:101920008039086010BDF0B503460C46002A01D18D
:1019300000BFFEE702CA002C02D0CE00B00800E0D3
:10194000084620CA082D00D908250126B6070E40F2
:10195000002E0ED1860005277F033E43204F803F97
:101960007E6300263E63204EF61EFE620026BE62A7
:101970000CE0060C07277F033E43194F803F7E6330
:1019800086B23E63254EFE621E4EBE622E07360FA5
:101990002327FF013E43124F803FBE6340CAFE63D0
:1019A00040CA0F4F403F3E6040CA7E601668BE602E
:1019B000F7260B4F803F7E62002C02D09E1C3E62B9
:1019C00003E05E1C064F803F3E6200BF044E803E37
:1019D000366A0127FF033E40002EF7D1F0BD00001C
:1019E000800005408C010010FF5F000084000010A3
:1019F000800000100C010010FC1F00008810000087
:101A000088140000FFFF0000FF9F000000800440DA
:101A1000800105400123000000E100E0FFDF00003D
:101A200010B5002203211046FEF728FE00220421F3
:101A30000120FEF723FE002208210120FEF71EFEF2
:101A4000002209210120FEF719FE00220A210120AF
:101A5000FEF714FE00220B210120FEF70FFE10BD41
:101A600010B508210120FEF700FE002801D1012059
:101A700010BD09210120FEF7F8FD002801D1022048
:101A8000F6E70A210120FEF7F0FD002801D103202E
:101A9000EEE70B210120FEF7E8FD002801D104202C
:101AA000E6E703210020FEF7E0FD002801D1052034
:101AB000DEE704210120FEF7D8FD002801D1062031
:101AC000D6E70020D4E7000010B50122092102204A
:101AD000FEF7D4FD012209210220FEF7BBFD012201
:101AE0000A210220FEF7CAFD01220A210220FEF788
:101AF000B1FD01220B210220FEF7C0FD10BD70B523
:101B00000446202C01DBFF2403E0E006C00E11494F
:101B10000C5C002209210220FEF79CFD002511E04B
:101B200000220A210220FEF795FDE207D20F0B21C9
:101B30000220FEF78FFD641001220A210220FEF729
:101B400089FD6D1C082DEBD3012209210220FEF72F
:101B500081FD70BDA447000000BF0146421ED0B207
:101B60000029FAD1704770B50346002510E0002423
:101B70000AE0002604E0CB20FFF7EEFF701CC6B29F
:101B80000F2EF8DB601CC4B2832CF2DB681CC5B2DC
:101B90009D42ECDB70BD10B50446002205210220F9
:101BA000FEF758FD002204210220FEF753FD2146D6
:101BB0000020FFF7B4FB012204210220FEF74AFDBA
:101BC000012205210220FEF745FD10BD10B5044697
:101BD000012205210220FEF73DFD00220421022002
:101BE000FEF738FD21460020FFF799FB0122042172
:101BF0000220FEF72FFD012205210220FEF72AFD1B
:101C000010BD70B504462546E117090F49190911A1
:101C10000901611AC8B2FFF7BEFF2546E117090F97
:101C2000491909111031C8B2FFF7B5FF70BD10B5E1
:101C300004462020FFF7AFFF2046FFF7ACFF10BDA2
:101C400070B505460C462120FFF7A5FF2846FFF793
:101C5000A2FF2046FFF79FFF70BD70B505460C46FA
:101C60002220FFF798FF2846FFF795FF2046FFF751
:101C700092FF70BD10B50446402121430846FFF78E
:101C80008AFF10BD10B504468120FFF784FF20466F
:101C9000FFF781FF10BD10B504468D20FFF77BFFD5
:101CA000102121430846FFF776FF10BD10B504460A
:101CB000A02121430846FFF76EFF10BD10B5044672
:101CC000A42121430846FFF766FF10BD10B5044666
:101CD000A62121430846FFF75EFF10BD10B504465C
:101CE000A820FFF758FF2046FFF755FF10BD10B59D
:101CF0000446AE2121430846FFF74DFF10BD10B545
:101D00000446B02121430846FFF745FF10BD10B53A
:101D10000446C02121430846FFF73DFF10BD10B522
:101D20000446D320FFF737FF2046FFF734FF10BDEE
:101D300010B50446D520FFF72EFF2046FFF72BFFF6
:101D400010BD10B50446D920FFF725FF2046FFF748
:101D500022FF10BD10B50446DA20FFF71CFF022158
:101D600021430846FFF717FF10BD10B50446DB20DE
:101D7000FFF711FF2046FFF70EFF10BD10B5E3205F
:101D8000FFF709FF10BD70B50646002410E020469D
:101D9000FFF7B5FF0020FFF734FF002504E03046D1
:101DA000FFF714FF681CC5B2802DF8DB601CC4B2BD
:101DB000082CECDB70BD10B50020FFF7E4FF10BD70
:101DC000FFB581B00D4616461F462C4615E020464D
:101DD000FFF795FF3846FFF714FF0020009006E05C
:101DE0000198FFF7F3FE0098401CC0B200900A99DA
:101DF00000988842F4DB601CC4B2701C8442E6DBAD
:101E000005B0F0BD70B5002413E02046FFF777FF62
:101E10000020FFF7F6FE002507E05520FFF7D6FE6D
:101E2000AA20FFF7D3FE681CC5B2402DF5DB601C6D
:101E3000C4B2082CE9DB70BD70B50020FFF75FFF6E
:101E40000020FFF7DEFE002404E00120FFF7BEFEC5
:101E5000601CC4B2802CF8DB0720FFF750FF002085
:101E6000FFF7CFFE002404E08020FFF7AFFE601CE8
:101E7000C4B2802CF8DB002411E02046FFF73FFFBE
:101E8000002508E0E8B2FFF7BCFEFF20FFF79EFE4A
:101E900028467F30C5B2802DF4DB601CC4B2082C0C
:101EA000EBDB70BDFFB581B007460D46012F02D0B8
:101EB000022F0BD104E0A8002818FE49441805E0C1
:101EC000681E81004018FC49441800BF00BF0398F9
:101ED000FFF715FF0498FFF794FE002605E0207831
:101EE000FFF774FE641C701CC6B2052EF7DB0020E1
:101EF000FFF76CFE05B0F0BDFFB581B007460D469B
:101F00001E462C46334660210120039AFFF7CAFF84
:101F10000CE0217833463846039AFFF7C3FF641C70
:101F2000B01DC6B22078002800D100E0F1E700BF64
:101F300005B0F0BDFFB583B005460E4617460295C5
:101F4000344619E02046FFF7DAFE0698FFF759FEFF
:101F5000002001900AE002990878FFF737FE029806
:101F6000401C02900198401CC0B201900C9901984D
:101F70008842F0DB601CC4B2781C8442E2DB07B00C
:101F8000F0BDFFB581B00D4614460498203881009D
:101F90004018C84946180198FFF7B1FE002D0BD133
:101FA0000020FFF72EFE002C03D10020FFF70EFECD
:101FB00002E0FF20FFF70AFE691CC8B2FFF721FE0E
:101FC00000270DE0002C03D13078FFF7FFFD04E07F
:101FD0003178C943C8B2FFF7F9FD761C781CC7B247
:101FE000052FEFDB002C03D10020FFF7EFFD02E00F
:101FF000FF20FFF7EBFD05B0F0BDF8B506460F4634
:1020000014460025082E19DA08E023783A462946B6
:102010003046FFF7B6FFA81D85B2641C2078002863
:1020200001D0012000E00020691C89B2802901DA7A
:10203000012100E0002108400028E6D1F8BDFFB5ED
:1020400081B015461F46A320FFF7A5FD0298FFF7B4
:10205000A2FD2846FFF79FFD0198002802D0012825
:1020600025D111E000240CE0E0B2FFF703FE0026CA
:1020700003E0C820FFF770FD761C0A988642F8D36B
:10208000E419AC42F0D312E000240DE0291BC8B2E1
:10209000FFF7F0FD002603E0C820FFF75DFD761C8A
:1020A0000A988642F8D3E419AC42EFD300BF00BFD0
:1020B0000020FFF7DFFD05B0F0BDF8B504460D4682
:1020C00016461F46262121430846FFF764FD0020DF
:1020D000FFF761FD2846FFF75EFD3846FFF75BFD21
:1020E0003046FFF758FD2F20FFF755FD0698FFF704
:1020F0003AFDF8BDF8B504460D4616461F46A32026
:10210000FFF749FD3846FFF746FD0698FFF743FD08
:1021100021462931C8B2FFF73EFD0020FFF73BFD05
:102120002846FFF738FD0898FFF735FD3046FFF7E2
:1021300032FD0798FFF72FFD2F20FFF72CFD0998A0
:10214000FFF711FDF8BD10B52E20FFF724FD10BDDF
:1021500010B50120FFF7CBFD00240CE0E0B2FFF743
:1021600091FDC820FFF7F8FCC820FFF7F5FCC82058
:10217000FFF7F2FC641CD02CF0D310BD10B5D024B6
:102180000DE0611EC8B2FFF77DFDC820FFF7E4FC3B
:10219000C820FFF7E1FCC820FFF7DEFC641E002C1E
:1021A000EFD10020FFF7A3FD10BD10B50446002CB1
:1021B00002D0012C0ED106E00020FFF798FD01208F
:1021C000FFF77CFD06E00020FFF778FD0120FFF718
:1021D0008EFD00BF00BF10BD0120FFF76FFD0BE0BB
:1021E0000120FFF784FD0220FFF7BDFC0020FFF770
:1021F0007EFD0220FFF7B7FCF2E710B50020FFF7E5
:1022000076FD8020FFF794FD3F20FFF767FD00205B
:10221000FFF785FD0020FFF72DFD0020FFF73BFDB8
:102220000220FFF704FD0120FFF740FD0820FFF723
:102230006EFD1020FFF78EFDCF20FFF723FD22203B
:10224000FFF77FFD4020FFF790FD0020FFF736FDF0
:102250000020FFF73BFD0020FFF795FD0120FFF771
:1022600046FD10BD10B5012205210220FEF706FA39
:102270000020FFF73CFD8020FFF75AFD3F20FFF7CD
:102280002DFD0020FFF74BFD0020FFF7F3FC04209D
:10229000FFF701FD0220FFF7CAFC0120FFF706FD52
:1022A0000820FFF734FD1020FFF754FDCF20FFF783
:1022B000E9FC03E094480000494D0000F120FFF7DD
:1022C00040FD4020FFF751FD0020FFF7F7FC002004
:1022D000FFF7FCFC0020FFF756FD0120FFF707FD8C
:1022E00010BD00B587B05CA207CA04AB07C30020CD
:1022F000FFF749FD3020282305220221009059488C
:10230000FFF718FE0520FFF72EFCFFF737FF05202B
:10231000FFF729FCFFF71CFF0520FFF724FC202016
:1023200001234022002100900846FFF788FE052087
:10233000FFF719FC202001234022002100901846BD
:10234000FFF77DFE0520FFF70EFCFFF7FCFE0520E2
:10235000FFF709FC01200021202301900093029146
:1023600003900B460A460846FFF7C4FE0520FFF718
:10237000FAFB012000211F222023009301920291E9
:1023800003900B460A460846FFF7B4FE0520FFF708
:10239000EAFB0220002101222023009301920291F6
:1023A00003900B4603220846FFF7A4FE0520FFF723
:1023B000DAFB022000211F222023009301920291C8
:1023C00003900B4603220120FFF794FE0520FFF740
:1023D000CAFB0220002101222023009301920291D6
:1023E00003900B46072204210120FFF783FE0520FE
:1023F000FFF7B9FB022000211F2220230093019246
:10240000029103900B46072204210020FFF772FE81
:102410000520FFF7A8FBFFF796FE0520FFF7A3FBBB
:10242000FF20FFF7B0FC0520FFF79DFBFFF7EAFC5C
:102430000520FFF798FB0020FFF7A5FCFFF7FCFC49
:102440000520FFF790FB2523032204A90120FFF7B5
:1024500053FD07B000BD0000354E49564953494F62
:102460004E000000D447000070B504460D4600221F
:1024700011460220FEF7EEF8E800802210436200C9
:10248000104301460120FEF74AFF00210120FEF71C
:1024900046FFC6B2012200210220FEF7DBF83046DB
:1024A00070BD10B502210020FFF7DEFF0446A40630
:1024B000A40E042C13D100210846FFF7D5FFF949DB
:1024C000F94A12888854F8480088401CF649088068
:1024D00008460088802807DB0020088004E00021EF
:1024E0000846FFF7C1FF044602210120FFF7BCFFA9
:1024F0000446A406A40E042C13D100210120FFF7EA
:10250000B3FFEA49EA4A12888854E9480088401C27
:10251000E749088008460088802807DB00200880FB
:1025200004E000210120FFF79FFF044610BD70B5B5
:1025300004460D461646002211460220FEF78AF890
:10254000E8006200104301460120FEF7E8FE314634
:102550000120FEF7E4FE012200210220FEF77AF8B6
:1025600070BDF8B505460E46BF2203212846FFF789
:10257000DEFF02212846FFF777FF044620461021A0
:102580000843024602212846FFF7D1FF03221146E5
:102590002846FFF7CCFF01212846FFF765FF0446D8
:1025A000204610218843024601212846FFF7BFFF3D
:1025B00004212846FFF758FF04462046802188431F
:1025C000024604212846FFF7B2FF83220321284652
:1025D000FFF7ADFF3146E120000300F017FF84B2A2
:1025E000E2B200212846FFF7A2FF2212012128466D
:1025F000FFF79DFF032211462846FFF798FF0021B1
:102600002846FFF731FF002203210846FEF736F87F
:10261000002003460246032100900846FDF784FE91
:1026200003210846FDF75FFF012211462846FFF708
:102630007EFF00212846FFF717FFF8BD70B505465D
:102640000C4600BF05212846FFF70EFF2021084059
:102650000028F7D0224600212846FFF768FF70BD0A
:1026600010B5044621460020FFF7E8FF10BD10B565
:10267000044604E021780020FFF7E0FF641C207886
:102680000028F7D110BD10B5044621460120FFF700
:10269000D5FF10BD10B5044604E021780120FFF7F6
:1026A000CDFF641C20780028F7D110BD0246002A17
:1026B00017D1804800887C4B1B88984229D07948E4
:1026C0007C4B1B88C05C08707A480088401C794BA2
:1026D000188018460088802801DB0020188001201F
:1026E000704775480088724B1B88984211D06F481C
:1026F000714B1B88C05C08706F480088401C6E4B93
:10270000188018460088802801DB002018800120EE
:10271000E6E70020E4E710B5044621460020FFF775
:10272000C5FF10BD10B5044621460120FFF7BEFFCE
:1027300010BD70B5C6B0012202210020FDF79EFF3A
:102740000120FEF745FC022208210120FEF737FD9B
:10275000E12149020120FFF704FF032120A80182A3
:102760000121418255A0259056A026905BA124A866
:10277000C1605FA10161782228A9684600F070FE5F
:1027800024A80FC800F086FB0025FA20FDF768FD9D
:102790001CE11FA8FEF7A8F8002803D018A8007FA6
:1027A000FFF771FF1FA8FFF7BDFF00286ED018A824
:1027B000007FFEF770F818A8037F00222946072043
:1027C000FFF7DFFB18A8037F002229460120FFF74F
:1027D000D8FBA81D85B2782D00DD0025002404E07B
:1027E00020A9601C085C0855641C072CF8D318A8A5
:1027F000007F20A9085520A80078462821D120A8CC
:10280000407841281DD120A880784E2819D120A8D1
:10281000C078202815D120A800794F2811D120A8F0
:1028200040796E280DD120A88079202809D120A8D0
:10283000C079202805D1002202211046FDF70AFFA9
:1028400024E020A80078462820D120A840784128FC
:102850001CD120A880784E2818D120A8C078202824
:1028600014D120A800794F2810D120A840796628DB
:102870000CD120A88079662808D120A8C07920280A
:1028800004D1012202210020FDF7E4FEFFF7E8F861
:102890000646012E36D0022E50D0052E6BD0062EC5
:1028A00072D18DE08C0400108C0000100C0500101B
:1028B000900000108E000010920000105A696742CC
:1028C00065650000312E53656E642048656C6C6F41
:1028D000205A69674265652100000000322E536569
:1028E0006E64205475726E206F6E2046414E00005B
:1028F000332E53656E64205475726E206F666620A9
:1029000046414E0020A8408A012806DD20A8408AC2
:10291000401E81B220A8418202E020A8018A4182A3
:10292000782228A9684600F09BFD24A80FC800F073
:10293000B1FA0025FA20FDF793FC46E020A8418A71
:10294000008A814206DA20A8408A401C81B220A871
:10295000418202E0012020A94882782228A9684605
:1029600000F07EFD24A80FC800F094FA0025FA209C
:10297000FDF776FC29E020A8408A012805D002282E
:102980000AD0032816D10EE01EE09EA0FFF782FEBB
:10299000A0A001F013F80EE0A4A0FFF77BFEA6A014
:1029A00001F00CF807E0AAA0FFF774FEABA001F05D
:1029B00005F800E000BF00BFFA20FDF751FC04E07D
:1029C000002020A9488200E000BF00BF20A8408A64
:1029D000002800D0DDE646B070BD70B5C6B001205D
:1029E000FEF7F6FA022208210120FEF7E8FBE121BA
:1029F00049020020FFF7B5FD032120A80182012133
:102A000041829CA025909DA02690A2A124A8C160EF
:102A1000A5A10161782228A9684600F021FD24A81B
:102A20000FC800F037FA0026FA20FDF719FCE1E0A4
:102A30001FA8FDF759FF002807D018A8007FFFF74F
:102A40000FFE18A8007FFDF726FF1FA8FFF763FE03
:102A5000002860D018A8007FFDF71DFFB01D86B2CA
:102A6000782E00DD0026002404E020A9601C085C0C
:102A70000855641C072CF8D318A8007F20A9085516
:102A800020A80078462821D120A8407841281DD1CF
:102A900020A880784E2819D120A8C078202815D1E8
:102AA00020A800794F2811D120A840796E280DD197
:102AB00020A88079202809D120A8C079202805D114
:102AC000002202211046FDF7C5FD24E020A8007871
:102AD000462820D120A8407841281CD120A8807801
:102AE0004E2818D120A8C078202814D120A8007919
:102AF0004F2810D120A8407966280CD120A88079D1
:102B0000662808D120A8C079202804D101220221FA
:102B10000020FDF79FFDFEF7A3FF0546012D06D01F
:102B2000022D1DD0052D35D0062D58D153E020A8FB
:102B3000408A012806DD20A8408A401E81B220A8D4
:102B4000418202E020A8018A4182782228A96846B1
:102B500000F086FC24A80FC800F09CF900263FE096
:102B600020A8418A008A814206DA20A8408A401CB7
:102B700081B220A8418202E0012020A94882782267
:102B800028A9684600F06CFC24A80FC800F082F960
:102B9000002625E020A8408A012804D0022809D078
:102BA000032815D10DE046A0FFF761FD48A000F015
:102BB00005FF0EE01DA0FFF75AFD1FA000F0FEFE6E
:102BC00007E049A0FFF753FD24A000F0F7FE00E066
:102BD00000BF00BF04E0002020A9488200E000BF41
:102BE00000BF002D06D020A8408A002802D0FA207D
:102BF000FDF736FB20A8408A002800D018E746B031
:102C000070BD000048656C6C6F205A69674265654D
:102C1000212020000D0A53656E642048656C6C6F9E
:102C2000205A6967426565212020000046414E20F8
:102C30004F6E2020000000000D0A53656E64205482
:102C400075726E206F6E2046414E202000000000FD
:102C500046414E204F666620000000000D0A536575
:102C60006E64205475726E206F66662046414E2059
:102C70002000000052532D3438350000312E5365AA
:102C80006E642048656C6C6F2052532D34383521AA
:102C900000000000322E5475726E206F6E206F742B
:102CA0006865722046414E00332E5475726E206F57
:102CB0006666206F746865722046414E0000000011
:102CC00048656C6C6F2052532D343835212000003C
:102CD0000D0A53656E642048656C6C6F2052532D4D
:102CE000343835212000000046414E204F666620D2
:102CF0002000000010B55F480068401C5D49086076
:102D000008460068FF21F531884213D100220121D5
:102D10000320FDF79FFC58480078FEF7F0FE564868
:102D20000078401C5449087008460078C006C00E60
:102D300008700DE04F4800687D21C900884207D324
:102D4000012211460320FDF785FC00204949086057
:102D500010BD1CB5002400200090FDF710FA0120E2
:102D600000F0FCF8002000F0F9F8FDF7C9FAE120C6
:102D70004002FDF71CFD7CE001A8FDF7B5FD012830
:102D800077D1002C03D16846017901700EE0012C47
:102D900003D168460179417008E0022C03D16846EE
:102DA0000179817002E068460179C170032C5ED11F
:102DB00068468078002804D0012821D0022851D10B
:102DC00032E0012200210320FDF758FC6846C0785C
:102DD000002808D1012200210320FDF73BFC27A099
:102DE000FDF76EFD0BE06846C078012807D1002290
:102DF00011460320FDF72EFC21A0FDF761FD31E017
:102E00006846C078002805D100F0A8F81DA0FDF79D
:102E100057FD08E06846C078012804D100F09EF80C
:102E200019A0FDF74DFD1DE0012202210020FDF754
:102E300025FC6846C078002807D101220221FDF751
:102E400009FC12A0FDF73CFD0BE06846C0780128A4
:102E500007D1002202211046FDF7FCFB0CA0FDF774
:102E60002FFD00BF00BF00200090002401E0601C87
:102E7000C4B281E7940000109800001030000000F8
:102E80003100000033000000340000003500000075
:102E9000360000000FB470B56946498A481E062105
:102EA00000F0CAFA85B2681C0621484384B269461C
:102EB000088AA04201DD052606E06946098A481E07
:102EC000062100F0B9FA8EB2FEF775FF0021084620
:102ED000059AFFF792F85023002266211046FFF76B
:102EE00050F8672300226C211046FFF74AF8202390
:102EF000002272211046FFF744F828463130C3B251
:102F0000002278211046FFF73CF8002420E06846B4
:102F1000418A062068430019401C81420BD10621DA
:102F2000694309198B0006A9CA58A11CC8B201211E
:102F3000FFF763F80AE00621694309198B0006A927
:102F4000CA58A11CC8B20021FFF757F8601C84B210
:102F5000B442DCDD70BC08BC04B0184710B50446B0
:102F6000002C0ED0012C10D17F20D049C860012246
:102F7000CF4801681046FDF722FE0120FDF75DFDF8
:102F800003E00120FDF763FD00BF00BF10BD10B5D9
:102F9000C0B0022110A8018701214187C5A01F9060
:102FA000C5A02090C8A11EA8C160782222A96846A9
:102FB00000F056FA1EA80FC8FFF76CFFFA20FDF7C5
:102FC0004FF96BE0FEF74CFD0446012C06D0022CB5
:102FD0001CD0052C33D0062C55D150E010A8408FC2
:102FE000012806DD10A8408F401E81B210A841873D
:102FF00002E010A8018F4187782222A9684600F0DC
:103000002FFA1EA80FC8FFF745FF3DE010A8418F1B
:10301000008F814206DA10A8408F401C81B210A8B0
:10302000418702E0012010A94887782222A968463A
:1030300000F016FA1EA80FC8FFF72CFF24E010A816
:10304000408F012802D0022816D10AE00022114642
:103050000320FDF7FFFA002201210320FDF7FAFA11
:103060000BE0012200210320FDF7F4FA01221146B2
:103070000320FDF7EFFA00E000BF00BF04E00020EE
:1030800010A9488700E000BF00BF002C06D010A8A0
:10309000408F002802D0FA20FDF7E2F810A8408FF8
:1030A00000288FD140B010BD10B5C0B0022110A8CB
:1030B00001870121418788A01F9089A020908DA1C0
:1030C0001EA8C160782222A9684600F0C9F91EA88E
:1030D0000FC8FFF7DFFEC820FDF7C2F85DE0FEF77E
:1030E000BFFC0446012C06D0022C1CD0052C33D08A
:1030F000062C47D142E010A8408F012806DD10A819
:10310000408F401E81B210A8418702E010A8018FB5
:103110004187782222A9684600F0A2F91EA80FC8AC
:10312000FFF7B8FE2FE010A8418F008F814206DA2A
:1031300010A8408F401C81B210A8418702E00120F6
:1031400010A94887782222A9684600F089F91EA8AC
:103150000FC8FFF79FFE16E010A8408F012802D08D
:10316000022808D103E00120FFF7F8FE04E0002068
:10317000FFF7F4FE00E000BF00BF04E0002010A94C
:10318000488700E000BF00BF002C06D010A8408F89
:10319000002802D0FA20FDF763F810A8408F00281D
:1031A0009DD140B010BD10B5C0B0022110A801875C
:1031B0000121418754A01F9054A0209057A11EA820
:1031C000C160782222A9684600F04AF91EA80FC8FB
:1031D000FFF760FEFA20FDF743F861E0FEF740FCE0
:1031E0000446012C06D0022C1CD0052C33D0062C12
:1031F0004BD146E010A8408F012806DD10A8408F73
:10320000401E81B210A8418702E010A8018F4187BB
:10321000782222A9684600F023F91EA80FC8FFF7FC
:1032200039FE33E010A8418F008F814206DA10A8E2
:10323000408F401C81B210A8418702E0012010A9F4
:103240004887782222A9684600F00AF91EA80FC80C
:10325000FFF720FE1AE010A8408F012802D00228B4
:103260000CD105E0002202211046FDF7F3F906E03B
:10327000012202210020FDF7EDF900E000BF00BFB0
:1032800004E0002010A9488700E000BF00BF002C28
:1032900006D010A8408F002802D0FA20FCF7E0FFEB
:1032A00010A8408F002899D140B010BD0080014087
:1032B0009C0000104C454400312E5475726E206FF6
:1032C0006E204C4544000000322E5475726E206F03
:1032D0006666204C45440000537065616B65720062
:1032E000312E5475726E206F6E20537065616B6560
:1032F00072000000322E5475726E206F6666205385
:103300007065616B6572000046414E00312E547548
:10331000726E206F6E2046414E000000322E5475B2
:10332000726E206F66662046414E000010B52F4831
:103330000068401C2D49086001210020FDF72BF991
:103340000446002C08D02A480068401C2849086020
:1033500001210020FDF752F910BD10B52548006885
:10336000401C2449086001210846FDF714F9044671
:10337000002C08D020480068401C1F49086001212B
:103380000846FDF73BF905210120FDF704F9002867
:103390000CD01A4880691A4908601A480068401C15
:1033A0001849086005210120FDF728F910BD10B566
:1033B00008210220FDF7EFF8002808D01248006825
:1033C000401C1149086008210220FDF717F910BDC3
:1033D00010B503210846FDF7DEF8002805D0FFF7F9
:1033E00060F803210846FDF709F910BDA40000109C
:1033F000A8000010AC000010B000001000E000E0D9
:10340000C8000010C4000010B800001030B50B4612
:10341000014600202022012409E00D46D5409D42AE
:1034200005D31D469540491B254695404019154634
:10343000521E002DF1DC30BD70B500242546002859
:1034400001DA01244042002901DA01254942FFF74F
:10345000DDFFAC4200D04042002C00D0494270BD9C
:1034600003460B439B0703D009E008C9121F08C09D
:10347000042AFAD203E00B780370401C491C521E48
:10348000F9D27047F0B51FB488B00B9909980024A1
:1034900048400999C00F490049080991C0070B9994
:1034A0000090490049080B9109990898A6460843DD
:1034B0001CD00B990A98084318D0099801244000A1
:1034C000420D4800410D099824050003000B2043DC
:1034D00009900B980003000B20430B9050181C49D7
:1034E0004018002201901446104605E000200146D5
:1034F0000DB0F0BD032801DA034600E003239C462B
:10350000C11A0AAE0AE05F0008ADED5B4F00F75B41
:103510007D430027AA187C41491C5B1E6145F2DDF2
:10352000410004AB5A522104120C0A43240C401CE3
:103530000828DFDB01980290009970460191009005
:10354000059B049A0799069800F0B9F8D0E70000A7
:103550000DFCFFFFF0B50C465C4085B0E40FE407BE
:1035600003944C000026640859009446490802461A
:103570000296224321D062460A431ED06200570DB4
:103580004A000E032303550D012402462C4924054D
:10359000781B1B0B360B40182343264361460090D3
:1035A0001C46501AB44103D30098401C009002E01E
:1035B000921800985B41002803DA0020014605B00C
:1035C000F0BD0020012109050746864611E064464A
:1035D0001D46141BB54106D36546521BB3417446C4
:1035E00007430C43A646CD074008490828439218D4
:1035F0005B4105460D43EAD11046184313D060469F
:10360000194650407140084306D06046101AB34135
:1036100006D20122002306E000220123DB0702E09C
:103620000122D2435310009874460105381C6141B1
:10363000029C039D0019694100F034F8BFE70000C7
:10364000FD030000F0B51FB40646002082B0054619
:103650004024019100901BE0019922460F4630461C
:1036600000F088F9049A059B801A994110D31046FE
:103670001946224600F06EF9361A8F41019722460C
:1036800001200021009F00F065F938184D4100909D
:103690002046641E0028DFDC019B00982946324644
:1036A00007B0F0BD10B5002B08DA0024401C6141C2
:1036B00092185B411A4301D14008400010BDF0B59B
:1036C0001FB482B005460C0003D0084600F098F9FC
:1036D00002E000F095F9203002460090214628468D
:1036E00000F038F9049B059A04460F46184311432D
:1036F000084314D0184610431BD0009840210A1AE2
:103700001846059900F036F905460E46009A0599C7
:10371000049800F01FF9084305D0012004E020467A
:10372000394607B0F0BD0020C11705430E432C43B6
:10373000374300990E986305401A7905E40A002280
:103740000C43FD0A0A3002D500200146E9E70105D5
:10375000101969410C9C0D9D00196941FFF7A2FFEA
:10376000DFE70000F0B507460846584087B0C00FB5
:10377000049048000E46590040084908BC1A884188
:1037800005D2384631461E4617460B4602465800BB
:10379000400810434CD0300D039040055900400DB7
:1037A000490D0590401A0290402872DA1803012151
:1037B000000B09050843019004980092002805D0E9
:1037C00001995242002088410092019002984021C4
:1037D0000A1A0199009800F0BDF805460C466B46A0
:1037E00007CB00F0D8F8C0197141039A0E0D0023E1
:1037F000D71756401A467A40164344D0049A002AF6
:103800002DD0029A012A039A15DC1205C01A9141A3
:1038100001263605001C7141D20F059ED207009388
:10382000019202962A462346FFF749FF07B0F0BDF2
:1038300038463146FAE71605224A0F46B218C01A32
:10384000B74101210905001C4F4100187F41114675
:1038500018187941E20F10436D19644113E0E20733
:103860006D0815436408C2071443039A0126120524
:10387000C01A91413605001C7141CE074008304303
:103880004908C01851412A462346FFF70BFFCDE7F0
:10389000FFE7049801224000C117121A00238B4150
:1038A00004983146C417381AA141EEE730B4012418
:1038B000E407634030BC55E730B40124E4076140BD
:1038C00030BC4FE70000E0FF4A0009030123090B69
:1038D0001B0519430A4B10B5520D9A4202DA00201B
:1038E000014610BD064B34339A4203DC9A1A00F0AD
:1038F00041F810BD034BD21800F02CF810BD0000A9
:10390000FF030000CDFBFFFF10B5002904DB0124FD
:10391000E40740428C412146002B04DB1C46012376
:10392000DB075242A341994200D1904210BD0000F2
:10393000064C0125064E05E0E36807CC2B430C3C02
:1039400098471034B442F7D3FCF7BEFB604F000039
:10395000804F000010B5202A04DB0146203A914038
:10396000002010BD914020239C1A0346E3401943D8
:10397000904010BD10B5202A04DB0846203AD04004
:10398000002110BD0B46D340D0402024A21A914004
:103990000843194610BD10B5202A06DBCB17084690
:1039A000203A1041C1170B4306E00B461341D040AB
:1039B0002024A21A91400843194610BD0FB410B537
:1039C00003A9044B044A029800F0FAF810BC08BCA2
:1039D00004B01847E90100001C0000107CB51C462B
:1039E0001546491E01910090044B6A46214628461F
:1039F00000F0FAFA009A002111707CBD6D470000BA
:103A00002021020C01D010211046020A01D01046DC
:103A10000839020901D01046091F820801D010465A
:103A2000891E420801D0881E7047081A704730B4BA
:103A30007446641E2578641CAB4204D3635D5B004E
:103A4000E31830BC18471D46F8E702E008C8121F0B
:103A500008C1002AFAD17047002001E001C1121FFD
:103A6000002AFBD170470000F0B51FB484B007985E
:103A70000699020D014314D04A484B491018484397
:103A800005140F9801280E981CD0281A401C0024F9
:103A9000464E4749009401910290002814DA4742AB
:103AA00027E00F98012443A3012808D0002104989F
:103AB0000F9A84600360C260416009B0F0BD0E9847
:103AC000C143F4E74042E2E7074612E0F80707D0B7
:103AD0002246334601990098FFF7D4FC01910090EB
:103AE0002246334610461946FFF7CCFC04460E46E4
:103AF0007F10002FEAD10298019B0028009A0799B5
:103B0000069802DAFFF7BEFC01E0FFF723FD04464A
:103B10000E460022284BFFF7F7FE03D80020C043D3
:103B2000014607E00022254B20463146FFF71AFEEA
:103B3000FFF7CAFE102409E0002C0ADB0A2200234A
:103B4000FFF780FD059B30321A55641E02460A437A
:103B5000F2D11122641C059B121B1C190F9B012B17
:103B600003D0012308430ED10AE0084304D01120FA
:103B70000E9000200F9084E70E98151A6D1E0BE032
:103B80000E98824202DD00236D1C03E0824201DABE
:103B900000236D1E002BEED004980F998260C16047
:103BA00030C08AE701FCFFFF104D000000002440F8
:103BB0000000F03F300000000000F0430000E03F54
:103BC000FFB591B00F460546002606E025280AD02D
:103BD000149A139990476D1C761C28780028F5D10B
:103BE000304615B0F0BD002400940121F34A029440
:103BF00000E004436D1C2B780846203B984010429F
:103C0000F7D128782A280ED0022128780246303AA7
:103C1000092A15D8009A0A235A43303A80180C43CF
:103C20006D1C0090F1E701CF0090002805DA01201B
:103C300040030443009840420090022004436D1C5E
:103C400028782E2815D10420044368786D1C2A2872
:103C50000AD101CF6D1C02900BE002990A22514358
:103C6000303940186D1C02902878014630390929F6
:103C7000F3D928786C2810D006DC4C281AD0682894
:103C80000ED06A2817D104E0742813D07A2812D1F4
:103C900010E00120400504430CE00121090501E08A
:103CA000032109050C436978814203D101200005F5
:103CB00024186D1C6D1C287803906E281ED00CDC17
:103CC000632831D004DC00288AD0582811D1B2E012
:103CD00064287BD069280CD178E073282DD004DCCF
:103CE0006F2870D0702804D1A7E075286CD0782890
:103CF0006BD0149A13999047761C62E06002400FD3
:103D0000022807D003280AD0042838680AD00660A1
:103D10003F1D56E03868F11706604160F8E73868E3
:103D20000680F5E70670F3E73878694608740020E6
:103D3000487404A80390012003E038680390002031
:103D4000C0433F1D61070FD5002101E00199491CC7
:103D5000029A0191914213DA8142F7DB019A0399A9
:103D6000895C0029F2D10BE0002101E00199491C96
:103D700001918142FADB019A0399895C0029F5D10E
:103D800001990098139A401A00902146149B00F064
:103D9000C1FC01998019461807E00398039900783F
:103DA000491C0391149A139990470198401E019061
:103DB000401CF2D12146149B139A009800F08AFC13
:103DC00086196D1C09E741E033E034E00A20002148
:103DD000049005916002410F022905D001CFC2175E
:103DE0009446032905D007E0FF1DFF08FF0003CF1D
:103DF00006E000B2C2179446042902D140B2C117AE
:103E00008C4600226146944506DA0A46002140426B
:103E100091418C462D2102E0210504D52B216A46D3
:103E20001176012103E0E10701D02021F7E701919C
:103E300054E00A200BE0102009E01020049000213B
:103E40000420044308200591029003E0082000218B
:103E5000059104906002410F022905D001CF002294
:103E60009446032906D006E0FF1DFF08FF0003CF9C
:103E70008C4603E080B2042900D1C0B20021019138
:103E800021072BD50399702906D0049A1021059B90
:103E90004A401A4305D00EE040216A4611760121BE
:103EA00008E06146014306D030216A461176039945
:103EB000517602210191049A0821059B4A401A4338
:103EC0000CD16146014301D1610707D530216A4613
:103ED0001176012101910299491E029103995829F5
:103EE00004D037A103910FA90F910DE039A1F9E793
:103EF0006146059B049AFFF7A5FB039B8C469B5CE0
:103F00000F9A521E0F92137061460143F0D10F9821
:103F100007A9081A20300390600704D50120000487
:103F20008443029801E0012002900399884201DD58
:103F3000401A00E0002041180290019809180098EA
:103F4000401A0090E00306D42146149B139A00986F
:103F500000F0E0FB86190020049008E006A9085C48
:103F6000149A139990470498401C761C0490019968
:103F70008842F3DBE0030CD52146149B139A00988A
:103F800000F0C8FB861904E0149A3020139990477A
:103F9000761C0299481E02900029F5DC08E00F9873
:103FA0000F990078491C0F91149A13999047761C29
:103FB0000399481E03900029F1DCFBE60928010063
:103FC000303132333435363738396162636465668F
:103FD0000000000030313233343536373839414251
:103FE0004344454600000000FFB597B00646002553
:103FF00018E2252877D100242746FD49049400E0E3
:104000000443761C32780120203A90400842F7D1D0
:1040100030782A280ED0022230780146303909291A
:1040200016D804990A235943303940181443761C92
:104030000490F1E7189802C804911890002904DA56
:104040000120400304434842049002200443761CAC
:1040500030782E2814D1042004437078761C2A2846
:1040600009D11898761C80C8189009E00A214F439E
:10407000303FC719761C3078014630390929F5D907
:1040800030786C2810D006DC4C281AD068280ED066
:104090006A2817D104E0742813D07A2812D110E0CE
:1040A0000120400504430CE00121090501E0032142
:1040B00009050C437178814203D1012000052418C1
:1040C000761C761C3078119066280BD013DC5828AB
:1040D0007DD009DC00287BD04528F6D04628F4D0D6
:1040E00047281AD1A5E118E0632835D0642870D09C
:1040F000652812D19DE170286CD008DC6728F1D0CA
:1041000069287BD06E280DD06F2806D1BAE07328BD
:104110002ED0752871D0782859D01A9A19999047BD
:104120006D1C7EE16002400F022809D003280DD0EB
:104130000428189801680DD00D60001D189070E1DA
:104140001898EA1701680D604A60F6E71898016848
:104150000D80F2E70D70F0E718986A460178117249
:10416000001D18900020507202A80090012005E068
:10417000189802C8189000200091C04361070DD51F
:10418000002101E00199491C0191B94212DA8142F2
:10419000F8DB009A515C0029F4D10BE0002101E02A
:1041A0000199491C01918142FADB019A0099895CCD
:1041B0000029F5D1019904981A9B471A21463846DF
:1041C000199A00F0BDFA0199401945180BE04FE02B
:1041D0002CE113E04EE0009800990078491C009112
:1041E0001A9A199990470198401E0190401CF2D1EB
:1041F000214638461A9B199A10E137E00A2000211F
:10420000009001916002410F022907D0189A01CA5B
:104210001892C2179446032908D00AE01898C01DC6
:10422000C108C90005C91891944607E000B2C21739
:104230009446042902D140B2C1178C46002261463F
:10424000944506DA0A460021404291418C462D21D0
:1042500002E0210504D52B216A461173012103E0F8
:10426000E10701D02021F7E7029155E00A200AE09A
:10427000102008E010200090002104200443019148
:10428000082703E008200021019100906002410FFF
:10429000022907D0189A01CA1892002294460329CD
:1042A00008D008E01898C01DC108C90005C91891B8
:1042B000944603E080B2042900D1C0B200210291EB
:1042C000210729D51199702906D0009A1021019B48
:1042D0004A401A4305D00EE040216A46117301217D
:1042E00008E06146014306D030216A4611731199F6
:1042F000517302210291009A0821019B4A401A43FE
:104300000AD16146014301D1610705D530216A46D2
:10431000117301217F1E02911199582904D035A1F2
:104320000E910DA90D910DE037A1F9E76146019BB2
:10433000009AFFF787F90E9B8C469B5C0D9A521EE4
:104340000D92137061460143F0D10D9805A9081A2A
:1043500020300190600703D501200004844300E071
:1043600001270198874201DD381A00E000200199F9
:1043700000904118029809180498401A0490E0032C
:1043800006D421461A9B199A049800F0D9F94519C8
:10439000002706E003A81A9AC05D199990476D1C82
:1043A0007F1C02988742F5DBE0030CD521461A9B5F
:1043B000199A049800F0C4F9451904E01A9A3020BB
:1043C000199990476D1C0099481E00900029F5DC52
:1043D00008E00D980D990078491C0D911A9A1999C9
:1043E00090476D1C0199481E01900029F1DC63E1A2
:1043F00009280100303132333435363738396162BB
:10440000636465660000000030313233343536377E
:1044100038394142434445460000000000F06AF943
:104420004519761C3078002800D0E2E528461BB0FC
:10443000F0BD600700D406271898C01DC108C90048
:1044400048680A680831C30FDB071891190001D0CA
:104450009CA108E0210501D59BA104E0E10701D062
:104460009AA100E09AA1430011985B081091652879
:104470000CD006DC452809D046281DD0472841D15C
:1044800041E0662818D067283CD13CE00021112F7C
:1044900001DB112000E0781C0191009008A911A80F
:1044A000FFF7E2FA139905910021119A15927F1CEA
:1044B00012980197009150E00120C007039001205D
:1044C000019008A9009711A8FFF7CEFA139A149942
:1044D00005920022119B009212981593059A019261
:1044E000002901D0104602E0791C40180190381ACA
:1044F00001D5019804E04042401E0090781C0190D4
:10450000C01B029043E0012F00DA01270021112F88
:1045100001DD112000E038460191009008A911A8A2
:10452000FFF7A2FA13990591119A0021129815929A
:104530000091019721070CD40599B94201DB01993B
:1045400000E00191012904DD159A491E515C3029D2
:1045500006D0B84201DA011D05DA0121029115E009
:104560000199491EEDE7002805DC009941180091EA
:104570000199091A03E0019A411C914200DD019161
:104580000099401A401C02900120C00703902007A8
:1045900006D402990198814202DB0020C0430290B8
:1045A00000206946C87707AF012103980337C90780
:1045B000884224D0022011902B20129003980028CA
:1045C0000CDA404203902D20129007E00A21039854
:1045D000FEF71CFF30317F1E039039701199481E81
:1045E00011900029F2DC03980028EFD1791E12986F
:1045F00008703078202108404530BF1E387006A86A
:10460000C01BC01D039010980078002800D0012026
:10461000019941180298C0170918039809180498BD
:10462000401A401E0490E00306D421461A9B199AB2
:10463000049800F085F8451910980078002803D0F8
:104640001A9A199990476D1CE00324D521461A9BAC
:10465000199A049800F074F845191CE00098002895
:1046600007DB00990598884203DD1598405C19998D
:1046700001E0199930201A9A904700986D1C401C4F
:1046800000900298401E0290002804D11A9A2E2011
:10469000199990476D1C0199481E01900029DDDC95
:1046A00005E038781A9A7F1C199990476D1C039978
:1046B000481E03900029F4DC21461A9B199A04989D
:1046C000ACE600002D0000002B00000020000000E0
:1046D00000000000F8B5044600251E461746880471
:1046E00004D405E039462020B0476D1C641EF9D57E
:1046F0002846F8BDF8B5044600251E46174688042E
:1047000004D405E039462020B0476D1C641EF9D55D
:104710002846F8BDFFB50446002581B01E46C803F3
:1047200001D5302700E02027880404D505E038466D
:104730000399B0476D1C641EF9D5284605B0F0BD3D
:10474000FFB50446002581B01E46C80301D53027B9
:1047500000E02027880404D505E038460399B047D7
:104760006D1C641EF9D5284605B0F0BD4A68002AC4
:1047700006D00A68531C0B6010704868401E4860E1
:10478000704700000000005000000150000002507F
:1047900000000350000000500000015000000250D3
:1047A00000000350487BD070636444794060414608
:1047B000CC52C4C5083B90302324043900200106A4
:1047C0008C1284850000005000000150000002504F
:1047D000000003500000FCFCFCFC000000FCFCFCA2
:1047E000FC000000E0E0E0E060E0E0E0C00000008D
:1047F000ECECECEC000000043CFCFCF08080F0FCF5
:10480000FC3C04000000070F1F1F1C181C1F1F0F7B
:10481000070000001F1F1F1F001F1F1F1F00000099
:104820001F1F1F1F0000000000010F1F1F1F1F0F71
:10483000010000000080E0E0F0703070F0E0E08007
:10484000000000F0F0F0F000000000000000F0F0C8
:10485000F0F03030303030000000F0F0F0F0307028
:10486000F0F0E080000F3F3F7F7060707F3F3F0FB0
:104870000000007F7F7F7F606060600000007F7FBE
:104880007F7F63636363600000007F7F7F7F607072
:104890007F7F3F0F000000000000004F0000000776
:1048A000000700147F147F14242A7F2A1223130880
:1048B000646236495522500005030000001C224165
:1048C000000041221C0014083E081408083E080895
:1048D0000050300000080808080800606000002050
:1048E000100804023E5149453E00427F40004261AB
:1048F0005149462141454B311814127F1027454537
:1049000045393C4A4949300171090503364949494D
:1049100036064949291E003636000000563600008A
:104920000814224100141414141400412214080223
:1049300001510906324979413E7E1111117E7F49AC
:104940004949363E414141227F4141221C7F49492C
:1049500049417F090909013E4149497A7F08080810
:104960007F00417F41002040413F017F08142241E8
:104970007F404040407F020C027F7F0408107F3E52
:104980004141413E7F090909063E4151215E7F09AF
:10499000192946464949493101017F01013F4040FB
:1049A000403F1F2040201F3F4038403F6314081401
:1049B0006307087008076151494543007F41410082
:1049C00002040810200041417F000402010204405B
:1049D00040404040010204000020545454787F4875
:1049E0004444383844444420384444487F3854547C
:1049F0005418087E090102064949493F7F0804040A
:104A00007800447D40002040443D007F1028440051
:104A100000417F40007C0418047C7C080404783842
:104A2000444444387C14141408081414187C7C087A
:104A30000404084854545420043F4440203C40405F
:104A4000207C1C2040201C3C4030403C4428102846
:104A5000440C5050503C4464544C440008364100CF
:104A600000007F0000004136080002010204023EFF
:104A70005555412200000000000000790000182474
:104A8000742E24487E4942405D2222225D15167C08
:104A9000161500007700000A555555280001000141
:104AA00000000A0D0A0408142A1422040404041C39
:104AB000000808080001010101010002050200448C
:104AC000445F444400000402017E2020103E060F93
:104AD0007F007F00181800000040502000000A0DE1
:104AE0000A0022142A14081708342A7D1708046AB9
:104AF0005930484540207029262870702826297092
:104B0000702A252A7072292629707029242970702C
:104B10002A2D2A707E117F49490E515171117C5501
:104B20005654447C555654447C565556447C5554F2
:104B3000554400457E440000447E450000467D46C5
:104B40000000457C45007F4949413E7C0A11227D99
:104B5000384546443838444645383846454638385E
:104B600046454639384544453822140814222E510A
:104B700049453A3C4142403C3C4042413C3C424138
:104B8000423C3C4140413C0C1062110C7F1212121D
:104B90000C403E01493620555654782054565578DD
:104BA000205655567820555655782055545578201E
:104BB0005657567824547854580C5252721338551C
:104BC00056541838545655183856555618385554A2
:104BD000551800497A400000487A4100004A79425D
:104BE00000004A784200314A4E4A307A110A097070
:104BF00030494A483030484A4930304A494A3030D2
:104C00004A494A31304A484A3008082A0808386474
:104C1000544C38384142207838404221783842415B
:104C2000227838424022780C5052513C7E141414A1
:104C3000080C5150513C1E0909295E081515354EC6
:104C4000384446452030484A4920384546452030BA
:104C5000494A49207C454645382050507C031F1561
:104C60001535510E151535467C5556554438555653
:104C7000551800447C40007F4844404000497F4430
:104C8000007C0812217C78100A09707C0912217CB2
:104C900078110A09703847444738304B484B303E4A
:104CA000417F494938443854587C151635487811A5
:104CB0000A09104854565520204856552048555644
:104CC0005520204956552004057E0504083C4822FD
:104CD000013C4245423C38424522783C4340433CFB
:104CE00038434023780C1160110C4466554C4448FD
:104CF0006A5948004464554C4448685A4800446521
:104D0000564D4448695A4900000201020000010260
:104D10000100000101010001020201000000010088
:104D200000000205020002010201007F05153A5051
:104D30003E55554122181408140C444A4A51515109
:104D4000514A4A4474424142747E1111117E7F4996
:104D50004949367F02010103704E414E707F494937
:104D6000494161514945437F0808087F3E49494907
:104D70003E00417F41007F08142241700E010E70F9
:104D80007F020C027F7F0408107F635D495D633EF4
:104D90004141413E413F013F417F090909066355B9
:104DA00049414101017F010103017E010308557F53
:104DB0005508631408146307487F48075E61016162
:104DC0005E384448304C7C2A2A2A144438040408AB
:104DD000304B4D5930285454442000185552223E2F
:104DE0000402027C3C4A4A4A3C003C4020007C10C1
:104DF00028444041320C30407E2020103E1C204090
:104E0000201C142B2A2A603844444438443C047C37
:104E10004470282424180C1212526038444C542434
:104E2000043C4420003C4040201C18247E241844AC
:104E3000281028440C107E100C38443044380A0ADC
:104E40004A2A1E044434140C201078040018084C1C
:104E5000483848487848484828187C08087C08287A
:104E60001840484878405454547C00180058403842
:104E7000080808080801413D090710087C02010ED6
:104E80000243221E42427E424222120A7F02423FD7
:104E900002423E0A0A7F0A0A084642221E040342D0
:104EA0003E02424242427E024F221F024A4A4020B4
:104EB0001C4222122A46023F424A46064840201E11
:104EC00008464A321E0A4A3E09080E004E201E04B9
:104ED000453D0504007F08100044241F040440429F
:104EE000424240422A122A0622127B162200402009
:104EF0001F0078000204783F4444444402424222A6
:104F00001E040204083032027F0232021222520EC4
:104F1000002A2A2A40382422207040281028060A15
:104F20003E4A4A4A047F04140C4042427E404A4AA8
:104F30004A4A7E040545251C0F40201F007C007E48
:104F400040307E402010087E4242427E0E024222C5
:104F50001E4242402018020401020007050700001B
:104F6000804F000000000010CC0000004A3A000012
:104F70004C500000CC000010C4060000583A00005D
:104F8000001BB700001BB700001BB70000000000AB
:104F90000100000000000000000000000000000010
:104FA0000000000000000000000000000000000001
:104FB00000000000000000000000000000000000F1
:104FC00000000000000000000000000000000000E1
:104FD00000000000000000000000000000000000D1
:104FE00000000000000000000000000000000000C1
:104FF00000000000000000000000000000000000B1
:1050000000000000000000000000000000000000A0
:10501000000000000000000000000000DC050000AF
:105020000000000000000000000000000000000080
:105030000000000000000000000000000000000070
:0C50400000000000000000000000000064
:04000005000000C136
:00000001FF
